{
  "_format": "hh-sol-artifact-1",
  "contractName": "Staker",
  "sourceName": "contracts/Staker.sol",
  "abi": [
    {
      "inputs": [
        {
          "internalType": "address",
          "name": "exampleExternalContractAddress",
          "type": "address"
        }
      ],
      "stateMutability": "nonpayable",
      "type": "constructor"
    },
    {
      "anonymous": false,
      "inputs": [
        {
          "indexed": false,
          "internalType": "address",
          "name": "sender",
          "type": "address"
        },
        {
          "indexed": false,
          "internalType": "uint256",
          "name": "amount",
          "type": "uint256"
        }
      ],
      "name": "Stake",
      "type": "event"
    },
    {
      "anonymous": false,
      "inputs": [
        {
          "indexed": true,
          "internalType": "address",
          "name": "sender",
          "type": "address"
        },
        {
          "indexed": false,
          "internalType": "uint256",
          "name": "amount",
          "type": "uint256"
        }
      ],
      "name": "Withdraw",
      "type": "event"
    },
    {
      "inputs": [
        {
          "internalType": "address",
          "name": "",
          "type": "address"
        }
      ],
      "name": "balances",
      "outputs": [
        {
          "internalType": "uint256",
          "name": "",
          "type": "uint256"
        }
      ],
      "stateMutability": "view",
      "type": "function"
    },
    {
      "inputs": [],
      "name": "deadline",
      "outputs": [
        {
          "internalType": "uint256",
          "name": "",
          "type": "uint256"
        }
      ],
      "stateMutability": "view",
      "type": "function"
    },
    {
      "inputs": [],
      "name": "exampleExternalContract",
      "outputs": [
        {
          "internalType": "contract ExampleExternalContract",
          "name": "",
          "type": "address"
        }
      ],
      "stateMutability": "view",
      "type": "function"
    },
    {
      "inputs": [],
      "name": "execute",
      "outputs": [],
      "stateMutability": "nonpayable",
      "type": "function"
    },
    {
      "inputs": [],
      "name": "stake",
      "outputs": [],
      "stateMutability": "payable",
      "type": "function"
    },
    {
      "inputs": [],
      "name": "threshold",
      "outputs": [
        {
          "internalType": "uint256",
          "name": "",
          "type": "uint256"
        }
      ],
      "stateMutability": "view",
      "type": "function"
    },
    {
      "inputs": [],
      "name": "timeLeft",
      "outputs": [
        {
          "internalType": "uint256",
          "name": "timeleft",
          "type": "uint256"
        }
      ],
      "stateMutability": "view",
      "type": "function"
    },
    {
      "inputs": [],
      "name": "withdraw",
      "outputs": [],
      "stateMutability": "nonpayable",
      "type": "function"
    },
    {
      "stateMutability": "payable",
      "type": "receive"
    }
  ],
  "bytecode": "0x6080604052610011426203f480610092565b60025534801561002057600080fd5b5060405161093e38038061093e83398101604081905261003f91610064565b600080546001600160a01b0319166001600160a01b03929092169190911790556100b6565b600060208284031215610075578081fd5b81516001600160a01b038116811461008b578182fd5b9392505050565b600082198211156100b157634e487b7160e01b81526011600452602481fd5b500190565b610879806100c56000396000f3fe60806040526004361061007f5760003560e01c80633ccfd60b1161004e5780633ccfd60b1461022657806342cde4e81461023b57806361461954146102575780639f75f2271461026c57600080fd5b80631300a6d1146101b157806327e235e3146101d957806329dcb0cf146102065780633a4b66f11461021c57600080fd5b366101ac5760008060009054906101000a90046001600160a01b03166001600160a01b0316639d9a7fe96040518163ffffffff1660e01b815260040160206040518083038186803b1580156100d357600080fd5b505afa1580156100e7573d6000803e3d6000fd5b505050506040513d601f19601f8201168201806040525081019061010b919061079d565b905080156101345760405162461bcd60e51b815260040161012b906107bd565b60405180910390fd5b33600090815260016020526040812080543492906101539084906107fe565b909155505033600090815260016020526040902054610171906102a4565b604080513381523460208201527febedb8b3c678666e7f36970bc8f57abf6d8fa2e828c0da91ea5b75bf68ed101a910160405180910390a150005b600080fd5b3480156101bd57600080fd5b506101c66102ec565b6040519081526020015b60405180910390f35b3480156101e557600080fd5b506101c66101f436600461076f565b60016020526000908152604090205481565b34801561021257600080fd5b506101c660025481565b610224610310565b005b34801561023257600080fd5b50610224610416565b34801561024757600080fd5b506101c6670de0b6b3a764000081565b34801561026357600080fd5b506102246105e5565b34801561027857600080fd5b5060005461028c906001600160a01b031681565b6040516001600160a01b0390911681526020016101d0565b6102e9816040516024016102ba91815260200190565b60408051601f198184030181529190526020810180516001600160e01b031663f5b1bba960e01b17905261074e565b50565b600060025442106102fd5750600090565b4260025461030b9190610816565b905090565b60008060009054906101000a90046001600160a01b03166001600160a01b0316639d9a7fe96040518163ffffffff1660e01b815260040160206040518083038186803b15801561035f57600080fd5b505afa158015610373573d6000803e3d6000fd5b505050506040513d601f19601f82011682018060405250810190610397919061079d565b905080156103b75760405162461bcd60e51b815260040161012b906107bd565b33600090815260016020526040812080543492906103d69084906107fe565b9091555050604080513381523460208201527febedb8b3c678666e7f36970bc8f57abf6d8fa2e828c0da91ea5b75bf68ed101a910160405180910390a150565b60008060009054906101000a90046001600160a01b03166001600160a01b0316639d9a7fe96040518163ffffffff1660e01b815260040160206040518083038186803b15801561046557600080fd5b505afa158015610479573d6000803e3d6000fd5b505050506040513d601f19601f8201168201806040525081019061049d919061079d565b905080156104bd5760405162461bcd60e51b815260040161012b906107bd565b336000908152600160205260409020546104d657600080fd5b60006104e06102ec565b11156104eb57600080fd5b33600081815260016020526040808220805490839055905190929083908381818185875af1925050503d8060008114610540576040519150601f19603f3d011682016040523d82523d6000602084013e610545565b606091505b50509050806105ab5760405162461bcd60e51b815260206004820152602c60248201527f4661696c656420746f2073656e6420757365722062616c616e6365206261636b60448201526b103a37903a3432903ab9b2b960a11b606482015260840161012b565b60405182815233907f884edad9ce6fa2440d8a54cc123490eb96d2768479d49ff9c7366125a94243649060200160405180910390a2505050565b60008060009054906101000a90046001600160a01b03166001600160a01b0316639d9a7fe96040518163ffffffff1660e01b815260040160206040518083038186803b15801561063457600080fd5b505afa158015610648573d6000803e3d6000fd5b505050506040513d601f19601f8201168201806040525081019061066c919061079d565b9050801561068c5760405162461bcd60e51b815260040161012b906107bd565b4260025411156106d55760405162461bcd60e51b8152602060048201526014602482015273111958591b1a5b99481b9bdd081c995858da195960621b604482015260640161012b565b670de0b6b3a764000047106102e95760008054906101000a90046001600160a01b03166001600160a01b031663522e1177476040518263ffffffff1660e01b81526004016000604051808303818588803b15801561073257600080fd5b505af1158015610746573d6000803e3d6000fd5b505050505050565b80516a636f6e736f6c652e6c6f67602083016000808483855afa5050505050565b600060208284031215610780578081fd5b81356001600160a01b0381168114610796578182fd5b9392505050565b6000602082840312156107ae578081fd5b81518015158114610796578182fd5b60208082526021908201527f7374616b696e672070726f6365737320616c726561647920636f6d706c6574656040820152601960fa1b606082015260800190565b600082198211156108115761081161082d565b500190565b6000828210156108285761082861082d565b500390565b634e487b7160e01b600052601160045260246000fdfea2646970667358221220aea259f4fde107f68af78e30d915ce541737ff3999ae68604636c38ec49a698864736f6c63430008040033",
  "linkReferences": {},
  "deployedLinkReferences": {}
}